{
  "_format": "hh-sol-artifact-1",
  "contractName": "TESTNFT",
  "sourceName": "contracts/TESTNFT.sol",
  "abi": [
    {
      "inputs": [
        {
          "internalType": "string",
          "name": "name",
          "type": "string"
        },
        {
          "internalType": "string",
          "name": "symbol",
          "type": "string"
        }
      ],
      "stateMutability": "nonpayable",
      "type": "constructor"
    },
    {
      "anonymous": false,
      "inputs": [
        {
          "indexed": true,
          "internalType": "address",
          "name": "owner",
          "type": "address"
        },
        {
          "indexed": true,
          "internalType": "address",
          "name": "approved",
          "type": "address"
        },
        {
          "indexed": true,
          "internalType": "uint256",
          "name": "tokenId",
          "type": "uint256"
        }
      ],
      "name": "Approval",
      "type": "event"
    },
    {
      "anonymous": false,
      "inputs": [
        {
          "indexed": true,
          "internalType": "address",
          "name": "owner",
          "type": "address"
        },
        {
          "indexed": true,
          "internalType": "address",
          "name": "operator",
          "type": "address"
        },
        {
          "indexed": false,
          "internalType": "bool",
          "name": "approved",
          "type": "bool"
        }
      ],
      "name": "ApprovalForAll",
      "type": "event"
    },
    {
      "anonymous": false,
      "inputs": [
        {
          "indexed": true,
          "internalType": "address",
          "name": "previousOwner",
          "type": "address"
        },
        {
          "indexed": true,
          "internalType": "address",
          "name": "newOwner",
          "type": "address"
        }
      ],
      "name": "OwnershipTransferred",
      "type": "event"
    },
    {
      "anonymous": false,
      "inputs": [
        {
          "indexed": true,
          "internalType": "address",
          "name": "from",
          "type": "address"
        },
        {
          "indexed": true,
          "internalType": "address",
          "name": "to",
          "type": "address"
        },
        {
          "indexed": true,
          "internalType": "uint256",
          "name": "tokenId",
          "type": "uint256"
        }
      ],
      "name": "Transfer",
      "type": "event"
    },
    {
      "inputs": [
        {
          "internalType": "address",
          "name": "to",
          "type": "address"
        },
        {
          "internalType": "uint256",
          "name": "tokenId",
          "type": "uint256"
        }
      ],
      "name": "approve",
      "outputs": [],
      "stateMutability": "nonpayable",
      "type": "function"
    },
    {
      "inputs": [
        {
          "internalType": "address",
          "name": "owner",
          "type": "address"
        }
      ],
      "name": "balanceOf",
      "outputs": [
        {
          "internalType": "uint256",
          "name": "",
          "type": "uint256"
        }
      ],
      "stateMutability": "view",
      "type": "function"
    },
    {
      "inputs": [
        {
          "internalType": "uint256",
          "name": "tokenId",
          "type": "uint256"
        }
      ],
      "name": "getApproved",
      "outputs": [
        {
          "internalType": "address",
          "name": "",
          "type": "address"
        }
      ],
      "stateMutability": "view",
      "type": "function"
    },
    {
      "inputs": [
        {
          "internalType": "address",
          "name": "owner",
          "type": "address"
        },
        {
          "internalType": "address",
          "name": "operator",
          "type": "address"
        }
      ],
      "name": "isApprovedForAll",
      "outputs": [
        {
          "internalType": "bool",
          "name": "",
          "type": "bool"
        }
      ],
      "stateMutability": "view",
      "type": "function"
    },
    {
      "inputs": [
        {
          "internalType": "address",
          "name": "to",
          "type": "address"
        },
        {
          "internalType": "string",
          "name": "uri",
          "type": "string"
        },
        {
          "internalType": "uint256",
          "name": "tokenId",
          "type": "uint256"
        }
      ],
      "name": "mint",
      "outputs": [],
      "stateMutability": "nonpayable",
      "type": "function"
    },
    {
      "inputs": [],
      "name": "name",
      "outputs": [
        {
          "internalType": "string",
          "name": "",
          "type": "string"
        }
      ],
      "stateMutability": "view",
      "type": "function"
    },
    {
      "inputs": [],
      "name": "owner",
      "outputs": [
        {
          "internalType": "address",
          "name": "",
          "type": "address"
        }
      ],
      "stateMutability": "view",
      "type": "function"
    },
    {
      "inputs": [
        {
          "internalType": "uint256",
          "name": "tokenId",
          "type": "uint256"
        }
      ],
      "name": "ownerOf",
      "outputs": [
        {
          "internalType": "address",
          "name": "",
          "type": "address"
        }
      ],
      "stateMutability": "view",
      "type": "function"
    },
    {
      "inputs": [],
      "name": "renounceOwnership",
      "outputs": [],
      "stateMutability": "nonpayable",
      "type": "function"
    },
    {
      "inputs": [
        {
          "internalType": "address",
          "name": "from",
          "type": "address"
        },
        {
          "internalType": "address",
          "name": "to",
          "type": "address"
        },
        {
          "internalType": "uint256",
          "name": "tokenId",
          "type": "uint256"
        }
      ],
      "name": "safeTransferFrom",
      "outputs": [],
      "stateMutability": "nonpayable",
      "type": "function"
    },
    {
      "inputs": [
        {
          "internalType": "address",
          "name": "from",
          "type": "address"
        },
        {
          "internalType": "address",
          "name": "to",
          "type": "address"
        },
        {
          "internalType": "uint256",
          "name": "tokenId",
          "type": "uint256"
        },
        {
          "internalType": "bytes",
          "name": "_data",
          "type": "bytes"
        }
      ],
      "name": "safeTransferFrom",
      "outputs": [],
      "stateMutability": "nonpayable",
      "type": "function"
    },
    {
      "inputs": [
        {
          "internalType": "address",
          "name": "operator",
          "type": "address"
        },
        {
          "internalType": "bool",
          "name": "approved",
          "type": "bool"
        }
      ],
      "name": "setApprovalForAll",
      "outputs": [],
      "stateMutability": "nonpayable",
      "type": "function"
    },
    {
      "inputs": [
        {
          "internalType": "string",
          "name": "s",
          "type": "string"
        }
      ],
      "name": "setBaseURI",
      "outputs": [],
      "stateMutability": "nonpayable",
      "type": "function"
    },
    {
      "inputs": [
        {
          "internalType": "address",
          "name": "a",
          "type": "address"
        },
        {
          "internalType": "bool",
          "name": "b",
          "type": "bool"
        }
      ],
      "name": "setMinter",
      "outputs": [],
      "stateMutability": "nonpayable",
      "type": "function"
    },
    {
      "inputs": [
        {
          "internalType": "uint256",
          "name": "tokenId",
          "type": "uint256"
        },
        {
          "internalType": "string",
          "name": "uri",
          "type": "string"
        }
      ],
      "name": "setURI",
      "outputs": [],
      "stateMutability": "nonpayable",
      "type": "function"
    },
    {
      "inputs": [
        {
          "internalType": "bytes4",
          "name": "interfaceId",
          "type": "bytes4"
        }
      ],
      "name": "supportsInterface",
      "outputs": [
        {
          "internalType": "bool",
          "name": "",
          "type": "bool"
        }
      ],
      "stateMutability": "view",
      "type": "function"
    },
    {
      "inputs": [],
      "name": "symbol",
      "outputs": [
        {
          "internalType": "string",
          "name": "",
          "type": "string"
        }
      ],
      "stateMutability": "view",
      "type": "function"
    },
    {
      "inputs": [
        {
          "internalType": "uint256",
          "name": "index",
          "type": "uint256"
        }
      ],
      "name": "tokenByIndex",
      "outputs": [
        {
          "internalType": "uint256",
          "name": "",
          "type": "uint256"
        }
      ],
      "stateMutability": "view",
      "type": "function"
    },
    {
      "inputs": [
        {
          "internalType": "address",
          "name": "owner",
          "type": "address"
        },
        {
          "internalType": "uint256",
          "name": "index",
          "type": "uint256"
        }
      ],
      "name": "tokenOfOwnerByIndex",
      "outputs": [
        {
          "internalType": "uint256",
          "name": "",
          "type": "uint256"
        }
      ],
      "stateMutability": "view",
      "type": "function"
    },
    {
      "inputs": [
        {
          "internalType": "uint256",
          "name": "tokenId",
          "type": "uint256"
        }
      ],
      "name": "tokenURI",
      "outputs": [
        {
          "internalType": "string",
          "name": "",
          "type": "string"
        }
      ],
      "stateMutability": "view",
      "type": "function"
    },
    {
      "inputs": [],
      "name": "totalSupply",
      "outputs": [
        {
          "internalType": "uint256",
          "name": "",
          "type": "uint256"
        }
      ],
      "stateMutability": "view",
      "type": "function"
    },
    {
      "inputs": [
        {
          "internalType": "address",
          "name": "from",
          "type": "address"
        },
        {
          "internalType": "address",
          "name": "to",
          "type": "address"
        },
        {
          "internalType": "uint256",
          "name": "tokenId",
          "type": "uint256"
        }
      ],
      "name": "transferFrom",
      "outputs": [],
      "stateMutability": "nonpayable",
      "type": "function"
    },
    {
      "inputs": [
        {
          "internalType": "address",
          "name": "newOwner",
          "type": "address"
        }
      ],
      "name": "transferOwnership",
      "outputs": [],
      "stateMutability": "nonpayable",
      "type": "function"
    }
  ],
  "bytecode": "0x60806040523480156200001157600080fd5b50604051620040d9380380620040d98339818101604052810190620000379190620002ef565b6040518060400160405280600781526020017f544553544e4654000000000000000000000000000000000000000000000000008152506040518060400160405280600381526020017f464c4f00000000000000000000000000000000000000000000000000000000008152508160009080519060200190620000bb929190620001cd565b508060019080519060200190620000d4929190620001cd565b505050620000f7620000eb620000ff60201b60201c565b6200010760201b60201c565b5050620004d2565b600033905090565b6000600b60009054906101000a900473ffffffffffffffffffffffffffffffffffffffff16905081600b60006101000a81548173ffffffffffffffffffffffffffffffffffffffff021916908373ffffffffffffffffffffffffffffffffffffffff1602179055508173ffffffffffffffffffffffffffffffffffffffff168173ffffffffffffffffffffffffffffffffffffffff167f8be0079c531659141344cd1fd0a4f28419497f9722a3daafe3b4186f6b6457e060405160405180910390a35050565b828054620001db90620003f7565b90600052602060002090601f016020900481019282620001ff57600085556200024b565b82601f106200021a57805160ff19168380011785556200024b565b828001600101855582156200024b579182015b828111156200024a5782518255916020019190600101906200022d565b5b5090506200025a91906200025e565b5090565b5b80821115620002795760008160009055506001016200025f565b5090565b6000620002946200028e846200038b565b62000362565b905082815260208101848484011115620002ad57600080fd5b620002ba848285620003c1565b509392505050565b600082601f830112620002d457600080fd5b8151620002e68482602086016200027d565b91505092915050565b600080604083850312156200030357600080fd5b600083015167ffffffffffffffff8111156200031e57600080fd5b6200032c85828601620002c2565b925050602083015167ffffffffffffffff8111156200034a57600080fd5b6200035885828601620002c2565b9150509250929050565b60006200036e62000381565b90506200037c82826200042d565b919050565b6000604051905090565b600067ffffffffffffffff821115620003a957620003a862000492565b5b620003b482620004c1565b9050602081019050919050565b60005b83811015620003e1578082015181840152602081019050620003c4565b83811115620003f1576000848401525b50505050565b600060028204905060018216806200041057607f821691505b6020821081141562000427576200042662000463565b5b50919050565b6200043882620004c1565b810181811067ffffffffffffffff821117156200045a576200045962000492565b5b80604052505050565b7f4e487b7100000000000000000000000000000000000000000000000000000000600052602260045260246000fd5b7f4e487b7100000000000000000000000000000000000000000000000000000000600052604160045260246000fd5b6000601f19601f8301169050919050565b613bf780620004e26000396000f3fe608060405234801561001057600080fd5b506004361061014d5760003560e01c806370a08231116100c3578063b88d4fde1161007c578063b88d4fde1461039c578063ba7aef43146103b8578063c87b56dd146103d4578063cf456ae714610404578063e985e9c514610420578063f2fde38b146104505761014d565b806370a08231146102ee578063715018a61461031e578063862440e2146103285780638da5cb5b1461034457806395d89b4114610362578063a22cb465146103805761014d565b806323b872dd1161011557806323b872dd1461020a5780632f745c591461022657806342842e0e146102565780634f6ccce71461027257806355f804b3146102a25780636352211e146102be5761014d565b806301ffc9a71461015257806306fdde0314610182578063081812fc146101a0578063095ea7b3146101d057806318160ddd146101ec575b600080fd5b61016c600480360381019061016791906129ed565b61046c565b6040516101799190612f14565b60405180910390f35b61018a61047e565b6040516101979190612f2f565b60405180910390f35b6101ba60048036038101906101b59190612a80565b610510565b6040516101c79190612ead565b60405180910390f35b6101ea60048036038101906101e591906129b1565b610595565b005b6101f46106ad565b60405161020191906131d1565b60405180910390f35b610224600480360381019061021f9190612844565b6106ba565b005b610240600480360381019061023b91906129b1565b61071a565b60405161024d91906131d1565b60405180910390f35b610270600480360381019061026b9190612844565b6107bf565b005b61028c60048036038101906102879190612a80565b6107df565b60405161029991906131d1565b60405180910390f35b6102bc60048036038101906102b79190612a3f565b610876565b005b6102d860048036038101906102d39190612a80565b61090c565b6040516102e59190612ead565b60405180910390f35b610308600480360381019061030391906127df565b6109be565b60405161031591906131d1565b60405180910390f35b610326610a76565b005b610342600480360381019061033d9190612aa9565b610afe565b005b61034c610b88565b6040516103599190612ead565b60405180910390f35b61036a610bb2565b6040516103779190612f2f565b60405180910390f35b61039a6004803603810190610395919061290e565b610c44565b005b6103b660048036038101906103b19190612893565b610c5a565b005b6103d260048036038101906103cd919061294a565b610cbc565b005b6103ee60048036038101906103e99190612a80565b610d68565b6040516103fb9190612f2f565b60405180910390f35b61041e6004803603810190610419919061290e565b610d7a565b005b61043a60048036038101906104359190612808565b610e51565b6040516104479190612f14565b60405180910390f35b61046a600480360381019061046591906127df565b610ee5565b005b600061047782610fdd565b9050919050565b60606000805461048d90613427565b80601f01602080910402602001604051908101604052809291908181526020018280546104b990613427565b80156105065780601f106104db57610100808354040283529160200191610506565b820191906000526020600020905b8154815290600101906020018083116104e957829003601f168201915b5050505050905090565b600061051b82611057565b61055a576040517f08c379a000000000000000000000000000000000000000000000000000000000815260040161055190613111565b60405180910390fd5b6004600083815260200190815260200160002060009054906101000a900473ffffffffffffffffffffffffffffffffffffffff169050919050565b60006105a08261090c565b90508073ffffffffffffffffffffffffffffffffffffffff168373ffffffffffffffffffffffffffffffffffffffff161415610611576040517f08c379a000000000000000000000000000000000000000000000000000000000815260040161060890613171565b60405180910390fd5b8073ffffffffffffffffffffffffffffffffffffffff166106306110c3565b73ffffffffffffffffffffffffffffffffffffffff16148061065f575061065e816106596110c3565b610e51565b5b61069e576040517f08c379a000000000000000000000000000000000000000000000000000000000815260040161069590613051565b60405180910390fd5b6106a883836110cb565b505050565b6000600980549050905090565b6106cb6106c56110c3565b82611184565b61070a576040517f08c379a000000000000000000000000000000000000000000000000000000000815260040161070190613191565b60405180910390fd5b610715838383611262565b505050565b6000610725836109be565b8210610766576040517f08c379a000000000000000000000000000000000000000000000000000000000815260040161075d90612f51565b60405180910390fd5b600760008473ffffffffffffffffffffffffffffffffffffffff1673ffffffffffffffffffffffffffffffffffffffff168152602001908152602001600020600083815260200190815260200160002054905092915050565b6107da83838360405180602001604052806000815250610c5a565b505050565b60006107e96106ad565b821061082a576040517f08c379a0000000000000000000000000000000000000000000000000000000008152600401610821906131b1565b60405180910390fd5b60098281548110610864577f4e487b7100000000000000000000000000000000000000000000000000000000600052603260045260246000fd5b90600052602060002001549050919050565b61087e6110c3565b73ffffffffffffffffffffffffffffffffffffffff1661089c610b88565b73ffffffffffffffffffffffffffffffffffffffff16146108f2576040517f08c379a00000000000000000000000000000000000000000000000000000000081526004016108e990613131565b60405180910390fd5b80600d9080519060200190610908929190612603565b5050565b6000806002600084815260200190815260200160002060009054906101000a900473ffffffffffffffffffffffffffffffffffffffff169050600073ffffffffffffffffffffffffffffffffffffffff168173ffffffffffffffffffffffffffffffffffffffff1614156109b5576040517f08c379a00000000000000000000000000000000000000000000000000000000081526004016109ac90613091565b60405180910390fd5b80915050919050565b60008073ffffffffffffffffffffffffffffffffffffffff168273ffffffffffffffffffffffffffffffffffffffff161415610a2f576040517f08c379a0000000000000000000000000000000000000000000000000000000008152600401610a2690613071565b60405180910390fd5b600360008373ffffffffffffffffffffffffffffffffffffffff1673ffffffffffffffffffffffffffffffffffffffff168152602001908152602001600020549050919050565b610a7e6110c3565b73ffffffffffffffffffffffffffffffffffffffff16610a9c610b88565b73ffffffffffffffffffffffffffffffffffffffff1614610af2576040517f08c379a0000000000000000000000000000000000000000000000000000000008152600401610ae990613131565b60405180910390fd5b610afc60006114c9565b565b610b066110c3565b73ffffffffffffffffffffffffffffffffffffffff16610b24610b88565b73ffffffffffffffffffffffffffffffffffffffff1614610b7a576040517f08c379a0000000000000000000000000000000000000000000000000000000008152600401610b7190613131565b60405180910390fd5b610b84828261158f565b5050565b6000600b60009054906101000a900473ffffffffffffffffffffffffffffffffffffffff16905090565b606060018054610bc190613427565b80601f0160208091040260200160405190810160405280929190818152602001828054610bed90613427565b8015610c3a5780601f10610c0f57610100808354040283529160200191610c3a565b820191906000526020600020905b815481529060010190602001808311610c1d57829003601f168201915b5050505050905090565b610c56610c4f6110c3565b8383611603565b5050565b610c6b610c656110c3565b83611184565b610caa576040517f08c379a0000000000000000000000000000000000000000000000000000000008152600401610ca190613191565b60405180910390fd5b610cb684848484611770565b50505050565b600c60003373ffffffffffffffffffffffffffffffffffffffff1673ffffffffffffffffffffffffffffffffffffffff16815260200190815260200160002060009054906101000a900460ff1680610d465750610d17610b88565b73ffffffffffffffffffffffffffffffffffffffff163373ffffffffffffffffffffffffffffffffffffffff16145b610d4f57600080fd5b610d5983826117cc565b610d63818361158f565b505050565b6060610d73826117ea565b9050919050565b610d826110c3565b73ffffffffffffffffffffffffffffffffffffffff16610da0610b88565b73ffffffffffffffffffffffffffffffffffffffff1614610df6576040517f08c379a0000000000000000000000000000000000000000000000000000000008152600401610ded90613131565b60405180910390fd5b80600c60008473ffffffffffffffffffffffffffffffffffffffff1673ffffffffffffffffffffffffffffffffffffffff16815260200190815260200160002060006101000a81548160ff0219169083151502179055505050565b6000600560008473ffffffffffffffffffffffffffffffffffffffff1673ffffffffffffffffffffffffffffffffffffffff16815260200190815260200160002060008373ffffffffffffffffffffffffffffffffffffffff1673ffffffffffffffffffffffffffffffffffffffff16815260200190815260200160002060009054906101000a900460ff16905092915050565b610eed6110c3565b73ffffffffffffffffffffffffffffffffffffffff16610f0b610b88565b73ffffffffffffffffffffffffffffffffffffffff1614610f61576040517f08c379a0000000000000000000000000000000000000000000000000000000008152600401610f5890613131565b60405180910390fd5b600073ffffffffffffffffffffffffffffffffffffffff168173ffffffffffffffffffffffffffffffffffffffff161415610fd1576040517f08c379a0000000000000000000000000000000000000000000000000000000008152600401610fc890612f91565b60405180910390fd5b610fda816114c9565b50565b60007f780e9d63000000000000000000000000000000000000000000000000000000007bffffffffffffffffffffffffffffffffffffffffffffffffffffffff1916827bffffffffffffffffffffffffffffffffffffffffffffffffffffffff19161480611050575061104f8261193c565b5b9050919050565b60008073ffffffffffffffffffffffffffffffffffffffff166002600084815260200190815260200160002060009054906101000a900473ffffffffffffffffffffffffffffffffffffffff1673ffffffffffffffffffffffffffffffffffffffff1614159050919050565b600033905090565b816004600083815260200190815260200160002060006101000a81548173ffffffffffffffffffffffffffffffffffffffff021916908373ffffffffffffffffffffffffffffffffffffffff160217905550808273ffffffffffffffffffffffffffffffffffffffff1661113e8361090c565b73ffffffffffffffffffffffffffffffffffffffff167f8c5be1e5ebec7d5bd14f71427d1e84f3dd0314c0f7b2291e5b200ac8c7c3b92560405160405180910390a45050565b600061118f82611057565b6111ce576040517f08c379a00000000000000000000000000000000000000000000000000000000081526004016111c590613031565b60405180910390fd5b60006111d98361090c565b90508073ffffffffffffffffffffffffffffffffffffffff168473ffffffffffffffffffffffffffffffffffffffff16148061124857508373ffffffffffffffffffffffffffffffffffffffff1661123084610510565b73ffffffffffffffffffffffffffffffffffffffff16145b8061125957506112588185610e51565b5b91505092915050565b8273ffffffffffffffffffffffffffffffffffffffff166112828261090c565b73ffffffffffffffffffffffffffffffffffffffff16146112d8576040517f08c379a00000000000000000000000000000000000000000000000000000000081526004016112cf90612fb1565b60405180910390fd5b600073ffffffffffffffffffffffffffffffffffffffff168273ffffffffffffffffffffffffffffffffffffffff161415611348576040517f08c379a000000000000000000000000000000000000000000000000000000000815260040161133f90612ff1565b60405180910390fd5b611353838383611a1e565b61135e6000826110cb565b6001600360008573ffffffffffffffffffffffffffffffffffffffff1673ffffffffffffffffffffffffffffffffffffffff16815260200190815260200160002060008282546113ae919061333d565b925050819055506001600360008473ffffffffffffffffffffffffffffffffffffffff1673ffffffffffffffffffffffffffffffffffffffff168152602001908152602001600020600082825461140591906132b6565b92505081905550816002600083815260200190815260200160002060006101000a81548173ffffffffffffffffffffffffffffffffffffffff021916908373ffffffffffffffffffffffffffffffffffffffff160217905550808273ffffffffffffffffffffffffffffffffffffffff168473ffffffffffffffffffffffffffffffffffffffff167fddf252ad1be2c89b69c2b068fc378daa952ba7f163c4a11628f55a4df523b3ef60405160405180910390a46114c4838383611a2e565b505050565b6000600b60009054906101000a900473ffffffffffffffffffffffffffffffffffffffff16905081600b60006101000a81548173ffffffffffffffffffffffffffffffffffffffff021916908373ffffffffffffffffffffffffffffffffffffffff1602179055508173ffffffffffffffffffffffffffffffffffffffff168173ffffffffffffffffffffffffffffffffffffffff167f8be0079c531659141344cd1fd0a4f28419497f9722a3daafe3b4186f6b6457e060405160405180910390a35050565b61159882611057565b6115d7576040517f08c379a00000000000000000000000000000000000000000000000000000000081526004016115ce906130b1565b60405180910390fd5b806006600084815260200190815260200160002090805190602001906115fe929190612603565b505050565b8173ffffffffffffffffffffffffffffffffffffffff168373ffffffffffffffffffffffffffffffffffffffff161415611672576040517f08c379a000000000000000000000000000000000000000000000000000000000815260040161166990613011565b60405180910390fd5b80600560008573ffffffffffffffffffffffffffffffffffffffff1673ffffffffffffffffffffffffffffffffffffffff16815260200190815260200160002060008473ffffffffffffffffffffffffffffffffffffffff1673ffffffffffffffffffffffffffffffffffffffff16815260200190815260200160002060006101000a81548160ff0219169083151502179055508173ffffffffffffffffffffffffffffffffffffffff168373ffffffffffffffffffffffffffffffffffffffff167f17307eab39ab6107e8899845ad3d59bd9653f200f220920489ca2b5937696c31836040516117639190612f14565b60405180910390a3505050565b61177b848484611262565b61178784848484611a33565b6117c6576040517f08c379a00000000000000000000000000000000000000000000000000000000081526004016117bd90612f71565b60405180910390fd5b50505050565b6117e6828260405180602001604052806000815250611bca565b5050565b60606117f582611057565b611834576040517f08c379a000000000000000000000000000000000000000000000000000000000815260040161182b906130f1565b60405180910390fd5b600060066000848152602001908152602001600020805461185490613427565b80601f016020809104026020016040519081016040528092919081815260200182805461188090613427565b80156118cd5780601f106118a2576101008083540402835291602001916118cd565b820191906000526020600020905b8154815290600101906020018083116118b057829003601f168201915b5050505050905060006118de611c25565b90506000815114156118f4578192505050611937565b600082511115611929578082604051602001611911929190612e89565b60405160208183030381529060405292505050611937565b61193284611cb7565b925050505b919050565b60007f80ac58cd000000000000000000000000000000000000000000000000000000007bffffffffffffffffffffffffffffffffffffffffffffffffffffffff1916827bffffffffffffffffffffffffffffffffffffffffffffffffffffffff19161480611a0757507f5b5e139f000000000000000000000000000000000000000000000000000000007bffffffffffffffffffffffffffffffffffffffffffffffffffffffff1916827bffffffffffffffffffffffffffffffffffffffffffffffffffffffff1916145b80611a175750611a1682611d5e565b5b9050919050565b611a29838383611dc8565b505050565b505050565b6000611a548473ffffffffffffffffffffffffffffffffffffffff16611edc565b15611bbd578373ffffffffffffffffffffffffffffffffffffffff1663150b7a02611a7d6110c3565b8786866040518563ffffffff1660e01b8152600401611a9f9493929190612ec8565b602060405180830381600087803b158015611ab957600080fd5b505af1925050508015611aea57506040513d601f19601f82011682018060405250810190611ae79190612a16565b60015b611b6d573d8060008114611b1a576040519150601f19603f3d011682016040523d82523d6000602084013e611b1f565b606091505b50600081511415611b65576040517f08c379a0000000000000000000000000000000000000000000000000000000008152600401611b5c90612f71565b60405180910390fd5b805181602001fd5b63150b7a0260e01b7bffffffffffffffffffffffffffffffffffffffffffffffffffffffff1916817bffffffffffffffffffffffffffffffffffffffffffffffffffffffff191614915050611bc2565b600190505b949350505050565b611bd48383611eff565b611be16000848484611a33565b611c20576040517f08c379a0000000000000000000000000000000000000000000000000000000008152600401611c1790612f71565b60405180910390fd5b505050565b6060600d8054611c3490613427565b80601f0160208091040260200160405190810160405280929190818152602001828054611c6090613427565b8015611cad5780601f10611c8257610100808354040283529160200191611cad565b820191906000526020600020905b815481529060010190602001808311611c9057829003601f168201915b5050505050905090565b6060611cc282611057565b611d01576040517f08c379a0000000000000000000000000000000000000000000000000000000008152600401611cf890613151565b60405180910390fd5b6000611d0b611c25565b90506000815111611d2b5760405180602001604052806000815250611d56565b80611d35846120d9565b604051602001611d46929190612e89565b6040516020818303038152906040525b915050919050565b60007f01ffc9a7000000000000000000000000000000000000000000000000000000007bffffffffffffffffffffffffffffffffffffffffffffffffffffffff1916827bffffffffffffffffffffffffffffffffffffffffffffffffffffffff1916149050919050565b611dd3838383612286565b600073ffffffffffffffffffffffffffffffffffffffff168373ffffffffffffffffffffffffffffffffffffffff161415611e1657611e118161228b565b611e55565b8173ffffffffffffffffffffffffffffffffffffffff168373ffffffffffffffffffffffffffffffffffffffff1614611e5457611e5383826122d4565b5b5b600073ffffffffffffffffffffffffffffffffffffffff168273ffffffffffffffffffffffffffffffffffffffff161415611e9857611e9381612441565b611ed7565b8273ffffffffffffffffffffffffffffffffffffffff168273ffffffffffffffffffffffffffffffffffffffff1614611ed657611ed58282612584565b5b5b505050565b6000808273ffffffffffffffffffffffffffffffffffffffff163b119050919050565b600073ffffffffffffffffffffffffffffffffffffffff168273ffffffffffffffffffffffffffffffffffffffff161415611f6f576040517f08c379a0000000000000000000000000000000000000000000000000000000008152600401611f66906130d1565b60405180910390fd5b611f7881611057565b15611fb8576040517f08c379a0000000000000000000000000000000000000000000000000000000008152600401611faf90612fd1565b60405180910390fd5b611fc460008383611a1e565b6001600360008473ffffffffffffffffffffffffffffffffffffffff1673ffffffffffffffffffffffffffffffffffffffff168152602001908152602001600020600082825461201491906132b6565b92505081905550816002600083815260200190815260200160002060006101000a81548173ffffffffffffffffffffffffffffffffffffffff021916908373ffffffffffffffffffffffffffffffffffffffff160217905550808273ffffffffffffffffffffffffffffffffffffffff16600073ffffffffffffffffffffffffffffffffffffffff167fddf252ad1be2c89b69c2b068fc378daa952ba7f163c4a11628f55a4df523b3ef60405160405180910390a46120d560008383611a2e565b5050565b60606000821415612121576040518060400160405280600181526020017f30000000000000000000000000000000000000000000000000000000000000008152509050612281565b600082905060005b6000821461215357808061213c9061348a565b915050600a8261214c919061330c565b9150612129565b60008167ffffffffffffffff811115612195577f4e487b7100000000000000000000000000000000000000000000000000000000600052604160045260246000fd5b6040519080825280601f01601f1916602001820160405280156121c75781602001600182028036833780820191505090505b5090505b6000851461227a576001826121e0919061333d565b9150600a856121ef91906134d3565b60306121fb91906132b6565b60f81b818381518110612237577f4e487b7100000000000000000000000000000000000000000000000000000000600052603260045260246000fd5b60200101907effffffffffffffffffffffffffffffffffffffffffffffffffffffffffffff1916908160001a905350600a85612273919061330c565b94506121cb565b8093505050505b919050565b505050565b600980549050600a600083815260200190815260200160002081905550600981908060018154018082558091505060019003906000526020600020016000909190919091505550565b600060016122e1846109be565b6122eb919061333d565b90506000600860008481526020019081526020016000205490508181146123d0576000600760008673ffffffffffffffffffffffffffffffffffffffff1673ffffffffffffffffffffffffffffffffffffffff168152602001908152602001600020600084815260200190815260200160002054905080600760008773ffffffffffffffffffffffffffffffffffffffff1673ffffffffffffffffffffffffffffffffffffffff168152602001908152602001600020600084815260200190815260200160002081905550816008600083815260200190815260200160002081905550505b6008600084815260200190815260200160002060009055600760008573ffffffffffffffffffffffffffffffffffffffff1673ffffffffffffffffffffffffffffffffffffffff16815260200190815260200160002060008381526020019081526020016000206000905550505050565b60006001600980549050612455919061333d565b90506000600a60008481526020019081526020016000205490506000600983815481106124ab577f4e487b7100000000000000000000000000000000000000000000000000000000600052603260045260246000fd5b9060005260206000200154905080600983815481106124f3577f4e487b7100000000000000000000000000000000000000000000000000000000600052603260045260246000fd5b906000526020600020018190555081600a600083815260200190815260200160002081905550600a6000858152602001908152602001600020600090556009805480612568577f4e487b7100000000000000000000000000000000000000000000000000000000600052603160045260246000fd5b6001900381819060005260206000200160009055905550505050565b600061258f836109be565b905081600760008573ffffffffffffffffffffffffffffffffffffffff1673ffffffffffffffffffffffffffffffffffffffff168152602001908152602001600020600083815260200190815260200160002081905550806008600084815260200190815260200160002081905550505050565b82805461260f90613427565b90600052602060002090601f0160209004810192826126315760008555612678565b82601f1061264a57805160ff1916838001178555612678565b82800160010185558215612678579182015b8281111561267757825182559160200191906001019061265c565b5b5090506126859190612689565b5090565b5b808211156126a257600081600090555060010161268a565b5090565b60006126b96126b484613211565b6131ec565b9050828152602081018484840111156126d157600080fd5b6126dc8482856133e5565b509392505050565b60006126f76126f284613242565b6131ec565b90508281526020810184848401111561270f57600080fd5b61271a8482856133e5565b509392505050565b60008135905061273181613b65565b92915050565b60008135905061274681613b7c565b92915050565b60008135905061275b81613b93565b92915050565b60008151905061277081613b93565b92915050565b600082601f83011261278757600080fd5b81356127978482602086016126a6565b91505092915050565b600082601f8301126127b157600080fd5b81356127c18482602086016126e4565b91505092915050565b6000813590506127d981613baa565b92915050565b6000602082840312156127f157600080fd5b60006127ff84828501612722565b91505092915050565b6000806040838503121561281b57600080fd5b600061282985828601612722565b925050602061283a85828601612722565b9150509250929050565b60008060006060848603121561285957600080fd5b600061286786828701612722565b935050602061287886828701612722565b9250506040612889868287016127ca565b9150509250925092565b600080600080608085870312156128a957600080fd5b60006128b787828801612722565b94505060206128c887828801612722565b93505060406128d9878288016127ca565b925050606085013567ffffffffffffffff8111156128f657600080fd5b61290287828801612776565b91505092959194509250565b6000806040838503121561292157600080fd5b600061292f85828601612722565b925050602061294085828601612737565b9150509250929050565b60008060006060848603121561295f57600080fd5b600061296d86828701612722565b935050602084013567ffffffffffffffff81111561298a57600080fd5b612996868287016127a0565b92505060406129a7868287016127ca565b9150509250925092565b600080604083850312156129c457600080fd5b60006129d285828601612722565b92505060206129e3858286016127ca565b9150509250929050565b6000602082840312156129ff57600080fd5b6000612a0d8482850161274c565b91505092915050565b600060208284031215612a2857600080fd5b6000612a3684828501612761565b91505092915050565b600060208284031215612a5157600080fd5b600082013567ffffffffffffffff811115612a6b57600080fd5b612a77848285016127a0565b91505092915050565b600060208284031215612a9257600080fd5b6000612aa0848285016127ca565b91505092915050565b60008060408385031215612abc57600080fd5b6000612aca858286016127ca565b925050602083013567ffffffffffffffff811115612ae757600080fd5b612af3858286016127a0565b9150509250929050565b612b0681613371565b82525050565b612b1581613383565b82525050565b6000612b2682613273565b612b308185613289565b9350612b408185602086016133f4565b612b49816135c0565b840191505092915050565b6000612b5f8261327e565b612b69818561329a565b9350612b798185602086016133f4565b612b82816135c0565b840191505092915050565b6000612b988261327e565b612ba281856132ab565b9350612bb28185602086016133f4565b80840191505092915050565b6000612bcb602b8361329a565b9150612bd6826135d1565b604082019050919050565b6000612bee60328361329a565b9150612bf982613620565b604082019050919050565b6000612c1160268361329a565b9150612c1c8261366f565b604082019050919050565b6000612c3460258361329a565b9150612c3f826136be565b604082019050919050565b6000612c57601c8361329a565b9150612c628261370d565b602082019050919050565b6000612c7a60248361329a565b9150612c8582613736565b604082019050919050565b6000612c9d60198361329a565b9150612ca882613785565b602082019050919050565b6000612cc0602c8361329a565b9150612ccb826137ae565b604082019050919050565b6000612ce360388361329a565b9150612cee826137fd565b604082019050919050565b6000612d06602a8361329a565b9150612d118261384c565b604082019050919050565b6000612d2960298361329a565b9150612d348261389b565b604082019050919050565b6000612d4c602e8361329a565b9150612d57826138ea565b604082019050919050565b6000612d6f60208361329a565b9150612d7a82613939565b602082019050919050565b6000612d9260318361329a565b9150612d9d82613962565b604082019050919050565b6000612db5602c8361329a565b9150612dc0826139b1565b604082019050919050565b6000612dd860208361329a565b9150612de382613a00565b602082019050919050565b6000612dfb602f8361329a565b9150612e0682613a29565b604082019050919050565b6000612e1e60218361329a565b9150612e2982613a78565b604082019050919050565b6000612e4160318361329a565b9150612e4c82613ac7565b604082019050919050565b6000612e64602c8361329a565b9150612e6f82613b16565b604082019050919050565b612e83816133db565b82525050565b6000612e958285612b8d565b9150612ea18284612b8d565b91508190509392505050565b6000602082019050612ec26000830184612afd565b92915050565b6000608082019050612edd6000830187612afd565b612eea6020830186612afd565b612ef76040830185612e7a565b8181036060830152612f098184612b1b565b905095945050505050565b6000602082019050612f296000830184612b0c565b92915050565b60006020820190508181036000830152612f498184612b54565b905092915050565b60006020820190508181036000830152612f6a81612bbe565b9050919050565b60006020820190508181036000830152612f8a81612be1565b9050919050565b60006020820190508181036000830152612faa81612c04565b9050919050565b60006020820190508181036000830152612fca81612c27565b9050919050565b60006020820190508181036000830152612fea81612c4a565b9050919050565b6000602082019050818103600083015261300a81612c6d565b9050919050565b6000602082019050818103600083015261302a81612c90565b9050919050565b6000602082019050818103600083015261304a81612cb3565b9050919050565b6000602082019050818103600083015261306a81612cd6565b9050919050565b6000602082019050818103600083015261308a81612cf9565b9050919050565b600060208201905081810360008301526130aa81612d1c565b9050919050565b600060208201905081810360008301526130ca81612d3f565b9050919050565b600060208201905081810360008301526130ea81612d62565b9050919050565b6000602082019050818103600083015261310a81612d85565b9050919050565b6000602082019050818103600083015261312a81612da8565b9050919050565b6000602082019050818103600083015261314a81612dcb565b9050919050565b6000602082019050818103600083015261316a81612dee565b9050919050565b6000602082019050818103600083015261318a81612e11565b9050919050565b600060208201905081810360008301526131aa81612e34565b9050919050565b600060208201905081810360008301526131ca81612e57565b9050919050565b60006020820190506131e66000830184612e7a565b92915050565b60006131f6613207565b90506132028282613459565b919050565b6000604051905090565b600067ffffffffffffffff82111561322c5761322b613591565b5b613235826135c0565b9050602081019050919050565b600067ffffffffffffffff82111561325d5761325c613591565b5b613266826135c0565b9050602081019050919050565b600081519050919050565b600081519050919050565b600082825260208201905092915050565b600082825260208201905092915050565b600081905092915050565b60006132c1826133db565b91506132cc836133db565b9250827fffffffffffffffffffffffffffffffffffffffffffffffffffffffffffffffff0382111561330157613300613504565b5b828201905092915050565b6000613317826133db565b9150613322836133db565b92508261333257613331613533565b5b828204905092915050565b6000613348826133db565b9150613353836133db565b92508282101561336657613365613504565b5b828203905092915050565b600061337c826133bb565b9050919050565b60008115159050919050565b60007fffffffff0000000000000000000000000000000000000000000000000000000082169050919050565b600073ffffffffffffffffffffffffffffffffffffffff82169050919050565b6000819050919050565b82818337600083830152505050565b60005b838110156134125780820151818401526020810190506133f7565b83811115613421576000848401525b50505050565b6000600282049050600182168061343f57607f821691505b6020821081141561345357613452613562565b5b50919050565b613462826135c0565b810181811067ffffffffffffffff8211171561348157613480613591565b5b80604052505050565b6000613495826133db565b91507fffffffffffffffffffffffffffffffffffffffffffffffffffffffffffffffff8214156134c8576134c7613504565b5b600182019050919050565b60006134de826133db565b91506134e9836133db565b9250826134f9576134f8613533565b5b828206905092915050565b7f4e487b7100000000000000000000000000000000000000000000000000000000600052601160045260246000fd5b7f4e487b7100000000000000000000000000000000000000000000000000000000600052601260045260246000fd5b7f4e487b7100000000000000000000000000000000000000000000000000000000600052602260045260246000fd5b7f4e487b7100000000000000000000000000000000000000000000000000000000600052604160045260246000fd5b6000601f19601f8301169050919050565b7f455243373231456e756d657261626c653a206f776e657220696e646578206f7560008201527f74206f6620626f756e6473000000000000000000000000000000000000000000602082015250565b7f4552433732313a207472616e7366657220746f206e6f6e20455243373231526560008201527f63656976657220696d706c656d656e7465720000000000000000000000000000602082015250565b7f4f776e61626c653a206e6577206f776e657220697320746865207a65726f206160008201527f6464726573730000000000000000000000000000000000000000000000000000602082015250565b7f4552433732313a207472616e736665722066726f6d20696e636f72726563742060008201527f6f776e6572000000000000000000000000000000000000000000000000000000602082015250565b7f4552433732313a20746f6b656e20616c7265616479206d696e74656400000000600082015250565b7f4552433732313a207472616e7366657220746f20746865207a65726f2061646460008201527f7265737300000000000000000000000000000000000000000000000000000000602082015250565b7f4552433732313a20617070726f766520746f2063616c6c657200000000000000600082015250565b7f4552433732313a206f70657261746f7220717565727920666f72206e6f6e657860008201527f697374656e7420746f6b656e0000000000000000000000000000000000000000602082015250565b7f4552433732313a20617070726f76652063616c6c6572206973206e6f74206f7760008201527f6e6572206e6f7220617070726f76656420666f7220616c6c0000000000000000602082015250565b7f4552433732313a2062616c616e636520717565727920666f7220746865207a6560008201527f726f206164647265737300000000000000000000000000000000000000000000602082015250565b7f4552433732313a206f776e657220717565727920666f72206e6f6e657869737460008201527f656e7420746f6b656e0000000000000000000000000000000000000000000000602082015250565b7f45524337323155524953746f726167653a2055524920736574206f66206e6f6e60008201527f6578697374656e7420746f6b656e000000000000000000000000000000000000602082015250565b7f4552433732313a206d696e7420746f20746865207a65726f2061646472657373600082015250565b7f45524337323155524953746f726167653a2055524920717565727920666f722060008201527f6e6f6e6578697374656e7420746f6b656e000000000000000000000000000000602082015250565b7f4552433732313a20617070726f76656420717565727920666f72206e6f6e657860008201527f697374656e7420746f6b656e0000000000000000000000000000000000000000602082015250565b7f4f776e61626c653a2063616c6c6572206973206e6f7420746865206f776e6572600082015250565b7f4552433732314d657461646174613a2055524920717565727920666f72206e6f60008201527f6e6578697374656e7420746f6b656e0000000000000000000000000000000000602082015250565b7f4552433732313a20617070726f76616c20746f2063757272656e74206f776e6560008201527f7200000000000000000000000000000000000000000000000000000000000000602082015250565b7f4552433732313a207472616e736665722063616c6c6572206973206e6f74206f60008201527f776e6572206e6f7220617070726f766564000000000000000000000000000000602082015250565b7f455243373231456e756d657261626c653a20676c6f62616c20696e646578206f60008201527f7574206f6620626f756e64730000000000000000000000000000000000000000602082015250565b613b6e81613371565b8114613b7957600080fd5b50565b613b8581613383565b8114613b9057600080fd5b50565b613b9c8161338f565b8114613ba757600080fd5b50565b613bb3816133db565b8114613bbe57600080fd5b5056fea264697066735822122037d7d0e17150480eab7ee4a91df57a20afbc2707b9300bcc2b4cfa28fc65b3b964736f6c63430008040033",
  "linkReferences": {},
  "deployedLinkReferences": {}
}